{
  "contractName": "CryptoStepsToken",
  "abi": [
    {
      "inputs": [],
      "stateMutability": "nonpayable",
      "type": "constructor"
    },
    {
      "anonymous": false,
      "inputs": [
        {
          "indexed": true,
          "internalType": "address",
          "name": "owner",
          "type": "address"
        },
        {
          "indexed": true,
          "internalType": "address",
          "name": "spender",
          "type": "address"
        },
        {
          "indexed": false,
          "internalType": "uint256",
          "name": "value",
          "type": "uint256"
        }
      ],
      "name": "Approval",
      "type": "event"
    },
    {
      "anonymous": false,
      "inputs": [
        {
          "indexed": true,
          "internalType": "address",
          "name": "previousOwner",
          "type": "address"
        },
        {
          "indexed": true,
          "internalType": "address",
          "name": "newOwner",
          "type": "address"
        }
      ],
      "name": "OwnershipTransferred",
      "type": "event"
    },
    {
      "anonymous": false,
      "inputs": [
        {
          "indexed": true,
          "internalType": "address",
          "name": "from",
          "type": "address"
        },
        {
          "indexed": true,
          "internalType": "address",
          "name": "to",
          "type": "address"
        },
        {
          "indexed": false,
          "internalType": "uint256",
          "name": "value",
          "type": "uint256"
        }
      ],
      "name": "Transfer",
      "type": "event"
    },
    {
      "inputs": [
        {
          "internalType": "address",
          "name": "owner",
          "type": "address"
        },
        {
          "internalType": "address",
          "name": "spender",
          "type": "address"
        }
      ],
      "name": "allowance",
      "outputs": [
        {
          "internalType": "uint256",
          "name": "",
          "type": "uint256"
        }
      ],
      "stateMutability": "view",
      "type": "function",
      "constant": true
    },
    {
      "inputs": [
        {
          "internalType": "address",
          "name": "spender",
          "type": "address"
        },
        {
          "internalType": "uint256",
          "name": "amount",
          "type": "uint256"
        }
      ],
      "name": "approve",
      "outputs": [
        {
          "internalType": "bool",
          "name": "",
          "type": "bool"
        }
      ],
      "stateMutability": "nonpayable",
      "type": "function"
    },
    {
      "inputs": [
        {
          "internalType": "address",
          "name": "account",
          "type": "address"
        }
      ],
      "name": "balanceOf",
      "outputs": [
        {
          "internalType": "uint256",
          "name": "",
          "type": "uint256"
        }
      ],
      "stateMutability": "view",
      "type": "function",
      "constant": true
    },
    {
      "inputs": [],
      "name": "decimals",
      "outputs": [
        {
          "internalType": "uint8",
          "name": "",
          "type": "uint8"
        }
      ],
      "stateMutability": "view",
      "type": "function",
      "constant": true
    },
    {
      "inputs": [
        {
          "internalType": "address",
          "name": "spender",
          "type": "address"
        },
        {
          "internalType": "uint256",
          "name": "subtractedValue",
          "type": "uint256"
        }
      ],
      "name": "decreaseAllowance",
      "outputs": [
        {
          "internalType": "bool",
          "name": "",
          "type": "bool"
        }
      ],
      "stateMutability": "nonpayable",
      "type": "function"
    },
    {
      "inputs": [
        {
          "internalType": "address",
          "name": "spender",
          "type": "address"
        },
        {
          "internalType": "uint256",
          "name": "addedValue",
          "type": "uint256"
        }
      ],
      "name": "increaseAllowance",
      "outputs": [
        {
          "internalType": "bool",
          "name": "",
          "type": "bool"
        }
      ],
      "stateMutability": "nonpayable",
      "type": "function"
    },
    {
      "inputs": [],
      "name": "name",
      "outputs": [
        {
          "internalType": "string",
          "name": "",
          "type": "string"
        }
      ],
      "stateMutability": "view",
      "type": "function",
      "constant": true
    },
    {
      "inputs": [],
      "name": "owner",
      "outputs": [
        {
          "internalType": "address",
          "name": "",
          "type": "address"
        }
      ],
      "stateMutability": "view",
      "type": "function",
      "constant": true
    },
    {
      "inputs": [],
      "name": "renounceOwnership",
      "outputs": [],
      "stateMutability": "nonpayable",
      "type": "function"
    },
    {
      "inputs": [],
      "name": "symbol",
      "outputs": [
        {
          "internalType": "string",
          "name": "",
          "type": "string"
        }
      ],
      "stateMutability": "view",
      "type": "function",
      "constant": true
    },
    {
      "inputs": [],
      "name": "totalSupply",
      "outputs": [
        {
          "internalType": "uint256",
          "name": "",
          "type": "uint256"
        }
      ],
      "stateMutability": "view",
      "type": "function",
      "constant": true
    },
    {
      "inputs": [
        {
          "internalType": "address",
          "name": "recipient",
          "type": "address"
        },
        {
          "internalType": "uint256",
          "name": "amount",
          "type": "uint256"
        }
      ],
      "name": "transfer",
      "outputs": [
        {
          "internalType": "bool",
          "name": "",
          "type": "bool"
        }
      ],
      "stateMutability": "nonpayable",
      "type": "function"
    },
    {
      "inputs": [
        {
          "internalType": "address",
          "name": "sender",
          "type": "address"
        },
        {
          "internalType": "address",
          "name": "recipient",
          "type": "address"
        },
        {
          "internalType": "uint256",
          "name": "amount",
          "type": "uint256"
        }
      ],
      "name": "transferFrom",
      "outputs": [
        {
          "internalType": "bool",
          "name": "",
          "type": "bool"
        }
      ],
      "stateMutability": "nonpayable",
      "type": "function"
    },
    {
      "inputs": [
        {
          "internalType": "address",
          "name": "newOwner",
          "type": "address"
        }
      ],
      "name": "transferOwnership",
      "outputs": [],
      "stateMutability": "nonpayable",
      "type": "function"
    },
    {
      "inputs": [
        {
          "internalType": "address",
          "name": "",
          "type": "address"
        }
      ],
      "name": "unclaimedRewards",
      "outputs": [
        {
          "internalType": "uint256",
          "name": "",
          "type": "uint256"
        }
      ],
      "stateMutability": "view",
      "type": "function",
      "constant": true
    },
    {
      "inputs": [
        {
          "internalType": "address",
          "name": "_NFTAddress",
          "type": "address"
        }
      ],
      "name": "setContractAddress",
      "outputs": [],
      "stateMutability": "nonpayable",
      "type": "function"
    },
    {
      "inputs": [
        {
          "internalType": "uint256",
          "name": "_amount",
          "type": "uint256"
        },
        {
          "internalType": "address",
          "name": "_player",
          "type": "address"
        }
      ],
      "name": "increaseUserRewards",
      "outputs": [],
      "stateMutability": "nonpayable",
      "type": "function"
    },
    {
      "inputs": [
        {
          "internalType": "string",
          "name": "_metadata",
          "type": "string"
        }
      ],
      "name": "withdrawReward",
      "outputs": [],
      "stateMutability": "nonpayable",
      "type": "function"
    }
  ],
  "bytecode": "0x60806040523480156200001157600080fd5b506040518060400160405280601281526020017f43727970746f2d537465707320546f6b656e00000000000000000000000000008152506040518060400160405280600381526020017f4353540000000000000000000000000000000000000000000000000000000000815250816003908051906020019062000096929190620001a6565b508060049080519060200190620000af929190620001a6565b505050620000d2620000c6620000d860201b60201c565b620000e060201b60201c565b620002bb565b600033905090565b6000600560009054906101000a900473ffffffffffffffffffffffffffffffffffffffff16905081600560006101000a81548173ffffffffffffffffffffffffffffffffffffffff021916908373ffffffffffffffffffffffffffffffffffffffff1602179055508173ffffffffffffffffffffffffffffffffffffffff168173ffffffffffffffffffffffffffffffffffffffff167f8be0079c531659141344cd1fd0a4f28419497f9722a3daafe3b4186f6b6457e060405160405180910390a35050565b828054620001b49062000256565b90600052602060002090601f016020900481019282620001d8576000855562000224565b82601f10620001f357805160ff191683800117855562000224565b8280016001018555821562000224579182015b828111156200022357825182559160200191906001019062000206565b5b50905062000233919062000237565b5090565b5b808211156200025257600081600090555060010162000238565b5090565b600060028204905060018216806200026f57607f821691505b602082108114156200028657620002856200028c565b5b50919050565b7f4e487b7100000000000000000000000000000000000000000000000000000000600052602260045260246000fd5b611f6f80620002cb6000396000f3fe608060405234801561001057600080fd5b50600436106101165760003560e01c806380a030f4116100a2578063a457c2d711610071578063a457c2d7146102e3578063a9059cbb14610313578063c18724d614610343578063dd62ed3e1461035f578063f2fde38b1461038f57610116565b806380a030f41461025b5780638da5cb5b14610277578063949813b81461029557806395d89b41146102c557610116565b8063313ce567116100e9578063313ce567146101b757806339509351146101d5578063477bddaa1461020557806370a0823114610221578063715018a61461025157610116565b806306fdde031461011b578063095ea7b31461013957806318160ddd1461016957806323b872dd14610187575b600080fd5b6101236103ab565b6040516101309190611849565b60405180910390f35b610153600480360381019061014e9190611557565b61043d565b604051610160919061182e565b60405180910390f35b61017161045b565b60405161017e91906119ab565b60405180910390f35b6101a1600480360381019061019c9190611508565b610465565b6040516101ae919061182e565b60405180910390f35b6101bf61055d565b6040516101cc91906119c6565b60405180910390f35b6101ef60048036038101906101ea9190611557565b610566565b6040516101fc919061182e565b60405180910390f35b61021f600480360381019061021a91906114a3565b610612565b005b61023b600480360381019061023691906114a3565b6106d2565b60405161024891906119ab565b60405180910390f35b61025961071a565b005b61027560048036038101906102709190611593565b6107a2565b005b61027f61095b565b60405161028c91906117e3565b60405180910390f35b6102af60048036038101906102aa91906114a3565b610985565b6040516102bc91906119ab565b60405180910390f35b6102cd61099d565b6040516102da9190611849565b60405180910390f35b6102fd60048036038101906102f89190611557565b610a2f565b60405161030a919061182e565b60405180910390f35b61032d60048036038101906103289190611557565b610b1a565b60405161033a919061182e565b60405180910390f35b61035d600480360381019061035891906115d4565b610b38565b005b610379600480360381019061037491906114cc565b610c0e565b60405161038691906119ab565b60405180910390f35b6103a960048036038101906103a491906114a3565b610c95565b005b6060600380546103ba90611b40565b80601f01602080910402602001604051908101604052809291908181526020018280546103e690611b40565b80156104335780601f1061040857610100808354040283529160200191610433565b820191906000526020600020905b81548152906001019060200180831161041657829003601f168201915b5050505050905090565b600061045161044a610d8d565b8484610d95565b6001905092915050565b6000600254905090565b6000610472848484610f60565b6000600160008673ffffffffffffffffffffffffffffffffffffffff1673ffffffffffffffffffffffffffffffffffffffff16815260200190815260200160002060006104bd610d8d565b73ffffffffffffffffffffffffffffffffffffffff1673ffffffffffffffffffffffffffffffffffffffff1681526020019081526020016000205490508281101561053d576040517f08c379a0000000000000000000000000000000000000000000000000000000008152600401610534906118eb565b60405180910390fd5b61055185610549610d8d565b858403610d95565b60019150509392505050565b60006012905090565b6000610608610573610d8d565b848460016000610581610d8d565b73ffffffffffffffffffffffffffffffffffffffff1673ffffffffffffffffffffffffffffffffffffffff16815260200190815260200160002060008873ffffffffffffffffffffffffffffffffffffffff1673ffffffffffffffffffffffffffffffffffffffff168152602001908152602001600020546106039190611a53565b610d95565b6001905092915050565b61061a610d8d565b73ffffffffffffffffffffffffffffffffffffffff1661063861095b565b73ffffffffffffffffffffffffffffffffffffffff161461068e576040517f08c379a00000000000000000000000000000000000000000000000000000000081526004016106859061190b565b60405180910390fd5b80600660006101000a81548173ffffffffffffffffffffffffffffffffffffffff021916908373ffffffffffffffffffffffffffffffffffffffff16021790555050565b60008060008373ffffffffffffffffffffffffffffffffffffffff1673ffffffffffffffffffffffffffffffffffffffff168152602001908152602001600020549050919050565b610722610d8d565b73ffffffffffffffffffffffffffffffffffffffff1661074061095b565b73ffffffffffffffffffffffffffffffffffffffff1614610796576040517f08c379a000000000000000000000000000000000000000000000000000000000815260040161078d9061190b565b60405180910390fd5b6107a060006111e1565b565b6000600760003373ffffffffffffffffffffffffffffffffffffffff1673ffffffffffffffffffffffffffffffffffffffff16815260200190815260200160002054111561095857678ac7230489e80000600760003373ffffffffffffffffffffffffffffffffffffffff1673ffffffffffffffffffffffffffffffffffffffff1681526020019081526020016000205411156108c957600660009054906101000a900473ffffffffffffffffffffffffffffffffffffffff1673ffffffffffffffffffffffffffffffffffffffff1663d204c45e33836040518363ffffffff1660e01b81526004016108969291906117fe565b600060405180830381600087803b1580156108b057600080fd5b505af11580156108c4573d6000803e3d6000fd5b505050505b61091233600760003373ffffffffffffffffffffffffffffffffffffffff1673ffffffffffffffffffffffffffffffffffffffff168152602001908152602001600020546112a7565b6000600760003373ffffffffffffffffffffffffffffffffffffffff1673ffffffffffffffffffffffffffffffffffffffff168152602001908152602001600020819055505b50565b6000600560009054906101000a900473ffffffffffffffffffffffffffffffffffffffff16905090565b60076020528060005260406000206000915090505481565b6060600480546109ac90611b40565b80601f01602080910402602001604051908101604052809291908181526020018280546109d890611b40565b8015610a255780601f106109fa57610100808354040283529160200191610a25565b820191906000526020600020905b815481529060010190602001808311610a0857829003601f168201915b5050505050905090565b60008060016000610a3e610d8d565b73ffffffffffffffffffffffffffffffffffffffff1673ffffffffffffffffffffffffffffffffffffffff16815260200190815260200160002060008573ffffffffffffffffffffffffffffffffffffffff1673ffffffffffffffffffffffffffffffffffffffff16815260200190815260200160002054905082811015610afb576040517f08c379a0000000000000000000000000000000000000000000000000000000008152600401610af29061196b565b60405180910390fd5b610b0f610b06610d8d565b85858403610d95565b600191505092915050565b6000610b2e610b27610d8d565b8484610f60565b6001905092915050565b610b40610d8d565b73ffffffffffffffffffffffffffffffffffffffff16610b5e61095b565b73ffffffffffffffffffffffffffffffffffffffff1614610bb4576040517f08c379a0000000000000000000000000000000000000000000000000000000008152600401610bab9061190b565b60405180910390fd5b81600760008373ffffffffffffffffffffffffffffffffffffffff1673ffffffffffffffffffffffffffffffffffffffff1681526020019081526020016000206000828254610c039190611a53565b925050819055505050565b6000600160008473ffffffffffffffffffffffffffffffffffffffff1673ffffffffffffffffffffffffffffffffffffffff16815260200190815260200160002060008373ffffffffffffffffffffffffffffffffffffffff1673ffffffffffffffffffffffffffffffffffffffff16815260200190815260200160002054905092915050565b610c9d610d8d565b73ffffffffffffffffffffffffffffffffffffffff16610cbb61095b565b73ffffffffffffffffffffffffffffffffffffffff1614610d11576040517f08c379a0000000000000000000000000000000000000000000000000000000008152600401610d089061190b565b60405180910390fd5b600073ffffffffffffffffffffffffffffffffffffffff168173ffffffffffffffffffffffffffffffffffffffff161415610d81576040517f08c379a0000000000000000000000000000000000000000000000000000000008152600401610d789061188b565b60405180910390fd5b610d8a816111e1565b50565b600033905090565b600073ffffffffffffffffffffffffffffffffffffffff168373ffffffffffffffffffffffffffffffffffffffff161415610e05576040517f08c379a0000000000000000000000000000000000000000000000000000000008152600401610dfc9061194b565b60405180910390fd5b600073ffffffffffffffffffffffffffffffffffffffff168273ffffffffffffffffffffffffffffffffffffffff161415610e75576040517f08c379a0000000000000000000000000000000000000000000000000000000008152600401610e6c906118ab565b60405180910390fd5b80600160008573ffffffffffffffffffffffffffffffffffffffff1673ffffffffffffffffffffffffffffffffffffffff16815260200190815260200160002060008473ffffffffffffffffffffffffffffffffffffffff1673ffffffffffffffffffffffffffffffffffffffff168152602001908152602001600020819055508173ffffffffffffffffffffffffffffffffffffffff168373ffffffffffffffffffffffffffffffffffffffff167f8c5be1e5ebec7d5bd14f71427d1e84f3dd0314c0f7b2291e5b200ac8c7c3b92583604051610f5391906119ab565b60405180910390a3505050565b600073ffffffffffffffffffffffffffffffffffffffff168373ffffffffffffffffffffffffffffffffffffffff161415610fd0576040517f08c379a0000000000000000000000000000000000000000000000000000000008152600401610fc79061192b565b60405180910390fd5b600073ffffffffffffffffffffffffffffffffffffffff168273ffffffffffffffffffffffffffffffffffffffff161415611040576040517f08c379a00000000000000000000000000000000000000000000000000000000081526004016110379061186b565b60405180910390fd5b61104b838383611407565b60008060008573ffffffffffffffffffffffffffffffffffffffff1673ffffffffffffffffffffffffffffffffffffffff168152602001908152602001600020549050818110156110d1576040517f08c379a00000000000000000000000000000000000000000000000000000000081526004016110c8906118cb565b60405180910390fd5b8181036000808673ffffffffffffffffffffffffffffffffffffffff1673ffffffffffffffffffffffffffffffffffffffff16815260200190815260200160002081905550816000808573ffffffffffffffffffffffffffffffffffffffff1673ffffffffffffffffffffffffffffffffffffffff16815260200190815260200160002060008282546111649190611a53565b925050819055508273ffffffffffffffffffffffffffffffffffffffff168473ffffffffffffffffffffffffffffffffffffffff167fddf252ad1be2c89b69c2b068fc378daa952ba7f163c4a11628f55a4df523b3ef846040516111c891906119ab565b60405180910390a36111db84848461140c565b50505050565b6000600560009054906101000a900473ffffffffffffffffffffffffffffffffffffffff16905081600560006101000a81548173ffffffffffffffffffffffffffffffffffffffff021916908373ffffffffffffffffffffffffffffffffffffffff1602179055508173ffffffffffffffffffffffffffffffffffffffff168173ffffffffffffffffffffffffffffffffffffffff167f8be0079c531659141344cd1fd0a4f28419497f9722a3daafe3b4186f6b6457e060405160405180910390a35050565b600073ffffffffffffffffffffffffffffffffffffffff168273ffffffffffffffffffffffffffffffffffffffff161415611317576040517f08c379a000000000000000000000000000000000000000000000000000000000815260040161130e9061198b565b60405180910390fd5b61132360008383611407565b80600260008282546113359190611a53565b92505081905550806000808473ffffffffffffffffffffffffffffffffffffffff1673ffffffffffffffffffffffffffffffffffffffff168152602001908152602001600020600082825461138a9190611a53565b925050819055508173ffffffffffffffffffffffffffffffffffffffff16600073ffffffffffffffffffffffffffffffffffffffff167fddf252ad1be2c89b69c2b068fc378daa952ba7f163c4a11628f55a4df523b3ef836040516113ef91906119ab565b60405180910390a36114036000838361140c565b5050565b505050565b505050565b600061142461141f84611a06565b6119e1565b90508281526020810184848401111561143c57600080fd5b611447848285611afe565b509392505050565b60008135905061145e81611f0b565b92915050565b600082601f83011261147557600080fd5b8135611485848260208601611411565b91505092915050565b60008135905061149d81611f22565b92915050565b6000602082840312156114b557600080fd5b60006114c38482850161144f565b91505092915050565b600080604083850312156114df57600080fd5b60006114ed8582860161144f565b92505060206114fe8582860161144f565b9150509250929050565b60008060006060848603121561151d57600080fd5b600061152b8682870161144f565b935050602061153c8682870161144f565b925050604061154d8682870161148e565b9150509250925092565b6000806040838503121561156a57600080fd5b60006115788582860161144f565b92505060206115898582860161148e565b9150509250929050565b6000602082840312156115a557600080fd5b600082013567ffffffffffffffff8111156115bf57600080fd5b6115cb84828501611464565b91505092915050565b600080604083850312156115e757600080fd5b60006115f58582860161148e565b92505060206116068582860161144f565b9150509250929050565b61161981611aa9565b82525050565b61162881611abb565b82525050565b600061163982611a37565b6116438185611a42565b9350611653818560208601611b0d565b61165c81611c30565b840191505092915050565b6000611674602383611a42565b915061167f82611c41565b604082019050919050565b6000611697602683611a42565b91506116a282611c90565b604082019050919050565b60006116ba602283611a42565b91506116c582611cdf565b604082019050919050565b60006116dd602683611a42565b91506116e882611d2e565b604082019050919050565b6000611700602883611a42565b915061170b82611d7d565b604082019050919050565b6000611723602083611a42565b915061172e82611dcc565b602082019050919050565b6000611746602583611a42565b915061175182611df5565b604082019050919050565b6000611769602483611a42565b915061177482611e44565b604082019050919050565b600061178c602583611a42565b915061179782611e93565b604082019050919050565b60006117af601f83611a42565b91506117ba82611ee2565b602082019050919050565b6117ce81611ae7565b82525050565b6117dd81611af1565b82525050565b60006020820190506117f86000830184611610565b92915050565b60006040820190506118136000830185611610565b8181036020830152611825818461162e565b90509392505050565b6000602082019050611843600083018461161f565b92915050565b60006020820190508181036000830152611863818461162e565b905092915050565b6000602082019050818103600083015261188481611667565b9050919050565b600060208201905081810360008301526118a48161168a565b9050919050565b600060208201905081810360008301526118c4816116ad565b9050919050565b600060208201905081810360008301526118e4816116d0565b9050919050565b60006020820190508181036000830152611904816116f3565b9050919050565b6000602082019050818103600083015261192481611716565b9050919050565b6000602082019050818103600083015261194481611739565b9050919050565b600060208201905081810360008301526119648161175c565b9050919050565b600060208201905081810360008301526119848161177f565b9050919050565b600060208201905081810360008301526119a4816117a2565b9050919050565b60006020820190506119c060008301846117c5565b92915050565b60006020820190506119db60008301846117d4565b92915050565b60006119eb6119fc565b90506119f78282611b72565b919050565b6000604051905090565b600067ffffffffffffffff821115611a2157611a20611c01565b5b611a2a82611c30565b9050602081019050919050565b600081519050919050565b600082825260208201905092915050565b6000611a5e82611ae7565b9150611a6983611ae7565b9250827fffffffffffffffffffffffffffffffffffffffffffffffffffffffffffffffff03821115611a9e57611a9d611ba3565b5b828201905092915050565b6000611ab482611ac7565b9050919050565b60008115159050919050565b600073ffffffffffffffffffffffffffffffffffffffff82169050919050565b6000819050919050565b600060ff82169050919050565b82818337600083830152505050565b60005b83811015611b2b578082015181840152602081019050611b10565b83811115611b3a576000848401525b50505050565b60006002820490506001821680611b5857607f821691505b60208210811415611b6c57611b6b611bd2565b5b50919050565b611b7b82611c30565b810181811067ffffffffffffffff82111715611b9a57611b99611c01565b5b80604052505050565b7f4e487b7100000000000000000000000000000000000000000000000000000000600052601160045260246000fd5b7f4e487b7100000000000000000000000000000000000000000000000000000000600052602260045260246000fd5b7f4e487b7100000000000000000000000000000000000000000000000000000000600052604160045260246000fd5b6000601f19601f8301169050919050565b7f45524332303a207472616e7366657220746f20746865207a65726f206164647260008201527f6573730000000000000000000000000000000000000000000000000000000000602082015250565b7f4f776e61626c653a206e6577206f776e657220697320746865207a65726f206160008201527f6464726573730000000000000000000000000000000000000000000000000000602082015250565b7f45524332303a20617070726f766520746f20746865207a65726f20616464726560008201527f7373000000000000000000000000000000000000000000000000000000000000602082015250565b7f45524332303a207472616e7366657220616d6f756e742065786365656473206260008201527f616c616e63650000000000000000000000000000000000000000000000000000602082015250565b7f45524332303a207472616e7366657220616d6f756e742065786365656473206160008201527f6c6c6f77616e6365000000000000000000000000000000000000000000000000602082015250565b7f4f776e61626c653a2063616c6c6572206973206e6f7420746865206f776e6572600082015250565b7f45524332303a207472616e736665722066726f6d20746865207a65726f20616460008201527f6472657373000000000000000000000000000000000000000000000000000000602082015250565b7f45524332303a20617070726f76652066726f6d20746865207a65726f2061646460008201527f7265737300000000000000000000000000000000000000000000000000000000602082015250565b7f45524332303a2064656372656173656420616c6c6f77616e63652062656c6f7760008201527f207a65726f000000000000000000000000000000000000000000000000000000602082015250565b7f45524332303a206d696e7420746f20746865207a65726f206164647265737300600082015250565b611f1481611aa9565b8114611f1f57600080fd5b50565b611f2b81611ae7565b8114611f3657600080fd5b5056fea26469706673582212205060c8086733108ef489adee16bf90a26453f2a910dc1696c6a68d5f53a1cfe864736f6c63430008020033",
  "immutableReferences": {},
  "source": "// SPDX-License-Identifier: MIT\r\npragma solidity ^0.8.2;\r\n\r\nimport \"@openzeppelin/contracts/token/ERC20/ERC20.sol\";\r\nimport \"@openzeppelin/contracts/access/Ownable.sol\";\r\n\r\nimport \"./CryptoStepsNFT.sol\";\r\n\r\ncontract CryptoStepsToken is ERC20, Ownable {\r\n    address NFTAddress;\r\n    mapping(address => uint) public unclaimedRewards;\r\n\r\n    constructor() ERC20(\"Crypto-Steps Token\", \"CST\") {}\r\n\r\n    function setContractAddress( \r\n        address _NFTAddress\r\n    ) \r\n        external \r\n        onlyOwner \r\n    {\r\n        NFTAddress = _NFTAddress;\r\n    }\r\n\r\n    function increaseUserRewards(uint _amount, address _player) external onlyOwner {\r\n      unclaimedRewards[_player] += _amount;\r\n    }\r\n\r\n    function withdrawReward(string memory _metadata) external {\r\n      if(unclaimedRewards[msg.sender] > 0) {\r\n        if(unclaimedRewards[msg.sender] > 10 ether) {\r\n          CryptoStepsNFT(NFTAddress).safeMint(msg.sender, _metadata);\r\n        }\r\n        _mint(msg.sender, unclaimedRewards[msg.sender]);\r\n        unclaimedRewards[msg.sender] = 0;\r\n\r\n      }\r\n    }\r\n}\r\n\r\n",
  "sourcePath": "C:/Users/Abel Simon Zachariah/Projects/Crypto-Steps/Smart-Contracts/contracts/CryptoStepsToken.sol",
  "compiler": {
    "name": "solc",
    "version": "0.8.2+commit.661d1103.Emscripten.clang"
  },
  "schemaVersion": "3.3.4",
  "updatedAt": "2021-11-13T13:40:02.366Z",
  "networkType": "ethereum",
  "devdoc": {
    "kind": "dev",
    "methods": {
      "allowance(address,address)": {
        "details": "See {IERC20-allowance}."
      },
      "approve(address,uint256)": {
        "details": "See {IERC20-approve}. Requirements: - `spender` cannot be the zero address."
      },
      "balanceOf(address)": {
        "details": "See {IERC20-balanceOf}."
      },
      "decimals()": {
        "details": "Returns the number of decimals used to get its user representation. For example, if `decimals` equals `2`, a balance of `505` tokens should be displayed to a user as `5.05` (`505 / 10 ** 2`). Tokens usually opt for a value of 18, imitating the relationship between Ether and Wei. This is the value {ERC20} uses, unless this function is overridden; NOTE: This information is only used for _display_ purposes: it in no way affects any of the arithmetic of the contract, including {IERC20-balanceOf} and {IERC20-transfer}."
      },
      "decreaseAllowance(address,uint256)": {
        "details": "Atomically decreases the allowance granted to `spender` by the caller. This is an alternative to {approve} that can be used as a mitigation for problems described in {IERC20-approve}. Emits an {Approval} event indicating the updated allowance. Requirements: - `spender` cannot be the zero address. - `spender` must have allowance for the caller of at least `subtractedValue`."
      },
      "increaseAllowance(address,uint256)": {
        "details": "Atomically increases the allowance granted to `spender` by the caller. This is an alternative to {approve} that can be used as a mitigation for problems described in {IERC20-approve}. Emits an {Approval} event indicating the updated allowance. Requirements: - `spender` cannot be the zero address."
      },
      "name()": {
        "details": "Returns the name of the token."
      },
      "owner()": {
        "details": "Returns the address of the current owner."
      },
      "renounceOwnership()": {
        "details": "Leaves the contract without owner. It will not be possible to call `onlyOwner` functions anymore. Can only be called by the current owner. NOTE: Renouncing ownership will leave the contract without an owner, thereby removing any functionality that is only available to the owner."
      },
      "symbol()": {
        "details": "Returns the symbol of the token, usually a shorter version of the name."
      },
      "totalSupply()": {
        "details": "See {IERC20-totalSupply}."
      },
      "transfer(address,uint256)": {
        "details": "See {IERC20-transfer}. Requirements: - `recipient` cannot be the zero address. - the caller must have a balance of at least `amount`."
      },
      "transferFrom(address,address,uint256)": {
        "details": "See {IERC20-transferFrom}. Emits an {Approval} event indicating the updated allowance. This is not required by the EIP. See the note at the beginning of {ERC20}. Requirements: - `sender` and `recipient` cannot be the zero address. - `sender` must have a balance of at least `amount`. - the caller must have allowance for ``sender``'s tokens of at least `amount`."
      },
      "transferOwnership(address)": {
        "details": "Transfers ownership of the contract to a new account (`newOwner`). Can only be called by the current owner."
      }
    },
    "version": 1
  },
  "userdoc": {
    "kind": "user",
    "methods": {},
    "version": 1
  }
}