{
  "contractName": "CryptoStepsNFT",
  "abi": [
    {
      "inputs": [],
      "stateMutability": "nonpayable",
      "type": "constructor"
    },
    {
      "anonymous": false,
      "inputs": [
        {
          "indexed": true,
          "internalType": "address",
          "name": "owner",
          "type": "address"
        },
        {
          "indexed": true,
          "internalType": "address",
          "name": "approved",
          "type": "address"
        },
        {
          "indexed": true,
          "internalType": "uint256",
          "name": "tokenId",
          "type": "uint256"
        }
      ],
      "name": "Approval",
      "type": "event"
    },
    {
      "anonymous": false,
      "inputs": [
        {
          "indexed": true,
          "internalType": "address",
          "name": "owner",
          "type": "address"
        },
        {
          "indexed": true,
          "internalType": "address",
          "name": "operator",
          "type": "address"
        },
        {
          "indexed": false,
          "internalType": "bool",
          "name": "approved",
          "type": "bool"
        }
      ],
      "name": "ApprovalForAll",
      "type": "event"
    },
    {
      "anonymous": false,
      "inputs": [
        {
          "indexed": true,
          "internalType": "bytes32",
          "name": "role",
          "type": "bytes32"
        },
        {
          "indexed": true,
          "internalType": "bytes32",
          "name": "previousAdminRole",
          "type": "bytes32"
        },
        {
          "indexed": true,
          "internalType": "bytes32",
          "name": "newAdminRole",
          "type": "bytes32"
        }
      ],
      "name": "RoleAdminChanged",
      "type": "event"
    },
    {
      "anonymous": false,
      "inputs": [
        {
          "indexed": true,
          "internalType": "bytes32",
          "name": "role",
          "type": "bytes32"
        },
        {
          "indexed": true,
          "internalType": "address",
          "name": "account",
          "type": "address"
        },
        {
          "indexed": true,
          "internalType": "address",
          "name": "sender",
          "type": "address"
        }
      ],
      "name": "RoleGranted",
      "type": "event"
    },
    {
      "anonymous": false,
      "inputs": [
        {
          "indexed": true,
          "internalType": "bytes32",
          "name": "role",
          "type": "bytes32"
        },
        {
          "indexed": true,
          "internalType": "address",
          "name": "account",
          "type": "address"
        },
        {
          "indexed": true,
          "internalType": "address",
          "name": "sender",
          "type": "address"
        }
      ],
      "name": "RoleRevoked",
      "type": "event"
    },
    {
      "anonymous": false,
      "inputs": [
        {
          "indexed": true,
          "internalType": "address",
          "name": "from",
          "type": "address"
        },
        {
          "indexed": true,
          "internalType": "address",
          "name": "to",
          "type": "address"
        },
        {
          "indexed": true,
          "internalType": "uint256",
          "name": "tokenId",
          "type": "uint256"
        }
      ],
      "name": "Transfer",
      "type": "event"
    },
    {
      "inputs": [],
      "name": "DEFAULT_ADMIN_ROLE",
      "outputs": [
        {
          "internalType": "bytes32",
          "name": "",
          "type": "bytes32"
        }
      ],
      "stateMutability": "view",
      "type": "function",
      "constant": true
    },
    {
      "inputs": [],
      "name": "MINTER_ROLE",
      "outputs": [
        {
          "internalType": "bytes32",
          "name": "",
          "type": "bytes32"
        }
      ],
      "stateMutability": "view",
      "type": "function",
      "constant": true
    },
    {
      "inputs": [
        {
          "internalType": "address",
          "name": "to",
          "type": "address"
        },
        {
          "internalType": "uint256",
          "name": "tokenId",
          "type": "uint256"
        }
      ],
      "name": "approve",
      "outputs": [],
      "stateMutability": "nonpayable",
      "type": "function"
    },
    {
      "inputs": [
        {
          "internalType": "uint256",
          "name": "",
          "type": "uint256"
        }
      ],
      "name": "badges",
      "outputs": [
        {
          "internalType": "uint256",
          "name": "tokenID",
          "type": "uint256"
        },
        {
          "internalType": "address",
          "name": "owner",
          "type": "address"
        }
      ],
      "stateMutability": "view",
      "type": "function",
      "constant": true
    },
    {
      "inputs": [
        {
          "internalType": "address",
          "name": "owner",
          "type": "address"
        }
      ],
      "name": "balanceOf",
      "outputs": [
        {
          "internalType": "uint256",
          "name": "",
          "type": "uint256"
        }
      ],
      "stateMutability": "view",
      "type": "function",
      "constant": true
    },
    {
      "inputs": [
        {
          "internalType": "uint256",
          "name": "tokenId",
          "type": "uint256"
        }
      ],
      "name": "getApproved",
      "outputs": [
        {
          "internalType": "address",
          "name": "",
          "type": "address"
        }
      ],
      "stateMutability": "view",
      "type": "function",
      "constant": true
    },
    {
      "inputs": [
        {
          "internalType": "bytes32",
          "name": "role",
          "type": "bytes32"
        }
      ],
      "name": "getRoleAdmin",
      "outputs": [
        {
          "internalType": "bytes32",
          "name": "",
          "type": "bytes32"
        }
      ],
      "stateMutability": "view",
      "type": "function",
      "constant": true
    },
    {
      "inputs": [
        {
          "internalType": "bytes32",
          "name": "role",
          "type": "bytes32"
        },
        {
          "internalType": "address",
          "name": "account",
          "type": "address"
        }
      ],
      "name": "grantRole",
      "outputs": [],
      "stateMutability": "nonpayable",
      "type": "function"
    },
    {
      "inputs": [
        {
          "internalType": "bytes32",
          "name": "role",
          "type": "bytes32"
        },
        {
          "internalType": "address",
          "name": "account",
          "type": "address"
        }
      ],
      "name": "hasRole",
      "outputs": [
        {
          "internalType": "bool",
          "name": "",
          "type": "bool"
        }
      ],
      "stateMutability": "view",
      "type": "function",
      "constant": true
    },
    {
      "inputs": [
        {
          "internalType": "address",
          "name": "owner",
          "type": "address"
        },
        {
          "internalType": "address",
          "name": "operator",
          "type": "address"
        }
      ],
      "name": "isApprovedForAll",
      "outputs": [
        {
          "internalType": "bool",
          "name": "",
          "type": "bool"
        }
      ],
      "stateMutability": "view",
      "type": "function",
      "constant": true
    },
    {
      "inputs": [],
      "name": "name",
      "outputs": [
        {
          "internalType": "string",
          "name": "",
          "type": "string"
        }
      ],
      "stateMutability": "view",
      "type": "function",
      "constant": true
    },
    {
      "inputs": [
        {
          "internalType": "uint256",
          "name": "tokenId",
          "type": "uint256"
        }
      ],
      "name": "ownerOf",
      "outputs": [
        {
          "internalType": "address",
          "name": "",
          "type": "address"
        }
      ],
      "stateMutability": "view",
      "type": "function",
      "constant": true
    },
    {
      "inputs": [
        {
          "internalType": "bytes32",
          "name": "role",
          "type": "bytes32"
        },
        {
          "internalType": "address",
          "name": "account",
          "type": "address"
        }
      ],
      "name": "renounceRole",
      "outputs": [],
      "stateMutability": "nonpayable",
      "type": "function"
    },
    {
      "inputs": [
        {
          "internalType": "bytes32",
          "name": "role",
          "type": "bytes32"
        },
        {
          "internalType": "address",
          "name": "account",
          "type": "address"
        }
      ],
      "name": "revokeRole",
      "outputs": [],
      "stateMutability": "nonpayable",
      "type": "function"
    },
    {
      "inputs": [
        {
          "internalType": "address",
          "name": "from",
          "type": "address"
        },
        {
          "internalType": "address",
          "name": "to",
          "type": "address"
        },
        {
          "internalType": "uint256",
          "name": "tokenId",
          "type": "uint256"
        }
      ],
      "name": "safeTransferFrom",
      "outputs": [],
      "stateMutability": "nonpayable",
      "type": "function"
    },
    {
      "inputs": [
        {
          "internalType": "address",
          "name": "from",
          "type": "address"
        },
        {
          "internalType": "address",
          "name": "to",
          "type": "address"
        },
        {
          "internalType": "uint256",
          "name": "tokenId",
          "type": "uint256"
        },
        {
          "internalType": "bytes",
          "name": "_data",
          "type": "bytes"
        }
      ],
      "name": "safeTransferFrom",
      "outputs": [],
      "stateMutability": "nonpayable",
      "type": "function"
    },
    {
      "inputs": [
        {
          "internalType": "address",
          "name": "operator",
          "type": "address"
        },
        {
          "internalType": "bool",
          "name": "approved",
          "type": "bool"
        }
      ],
      "name": "setApprovalForAll",
      "outputs": [],
      "stateMutability": "nonpayable",
      "type": "function"
    },
    {
      "inputs": [],
      "name": "symbol",
      "outputs": [
        {
          "internalType": "string",
          "name": "",
          "type": "string"
        }
      ],
      "stateMutability": "view",
      "type": "function",
      "constant": true
    },
    {
      "inputs": [
        {
          "internalType": "address",
          "name": "from",
          "type": "address"
        },
        {
          "internalType": "address",
          "name": "to",
          "type": "address"
        },
        {
          "internalType": "uint256",
          "name": "tokenId",
          "type": "uint256"
        }
      ],
      "name": "transferFrom",
      "outputs": [],
      "stateMutability": "nonpayable",
      "type": "function"
    },
    {
      "inputs": [
        {
          "internalType": "address",
          "name": "to",
          "type": "address"
        },
        {
          "internalType": "string",
          "name": "uri",
          "type": "string"
        }
      ],
      "name": "safeMint",
      "outputs": [],
      "stateMutability": "nonpayable",
      "type": "function"
    },
    {
      "inputs": [
        {
          "internalType": "uint256",
          "name": "tokenId",
          "type": "uint256"
        }
      ],
      "name": "tokenURI",
      "outputs": [
        {
          "internalType": "string",
          "name": "",
          "type": "string"
        }
      ],
      "stateMutability": "view",
      "type": "function",
      "constant": true
    },
    {
      "inputs": [
        {
          "internalType": "bytes4",
          "name": "interfaceId",
          "type": "bytes4"
        }
      ],
      "name": "supportsInterface",
      "outputs": [
        {
          "internalType": "bool",
          "name": "",
          "type": "bool"
        }
      ],
      "stateMutability": "view",
      "type": "function",
      "constant": true
    }
  ],
  "bytecode": "0x60806040523480156200001157600080fd5b506040518060400160405280601081526020017f43727970746f2d5374657073204e4654000000000000000000000000000000008152506040518060400160405280600581526020017f535445505300000000000000000000000000000000000000000000000000000081525081600090805190602001906200009692919062000248565b508060019080519060200190620000af92919062000248565b505050620000c76000801b33620000cd60201b60201c565b6200035d565b620000df8282620000e360201b60201c565b5050565b620000f58282620001d560201b60201c565b620001d15760016007600084815260200190815260200160002060000160008373ffffffffffffffffffffffffffffffffffffffff1673ffffffffffffffffffffffffffffffffffffffff16815260200190815260200160002060006101000a81548160ff021916908315150217905550620001766200024060201b60201c565b73ffffffffffffffffffffffffffffffffffffffff168173ffffffffffffffffffffffffffffffffffffffff16837f2f8788117e7eff1d82e926ec794901d17c78024a50270940304540a733656f0d60405160405180910390a45b5050565b60006007600084815260200190815260200160002060000160008373ffffffffffffffffffffffffffffffffffffffff1673ffffffffffffffffffffffffffffffffffffffff16815260200190815260200160002060009054906101000a900460ff16905092915050565b600033905090565b8280546200025690620002f8565b90600052602060002090601f0160209004810192826200027a5760008555620002c6565b82601f106200029557805160ff1916838001178555620002c6565b82800160010185558215620002c6579182015b82811115620002c5578251825591602001919060010190620002a8565b5b509050620002d59190620002d9565b5090565b5b80821115620002f4576000816000905550600101620002da565b5090565b600060028204905060018216806200031157607f821691505b602082108114156200032857620003276200032e565b5b50919050565b7f4e487b7100000000000000000000000000000000000000000000000000000000600052602260045260246000fd5b613941806200036d6000396000f3fe608060405234801561001057600080fd5b50600436106101425760003560e01c806391d14854116100b8578063b88d4fde1161007c578063b88d4fde1461039a578063c87b56dd146103b6578063d204c45e146103e6578063d539139314610402578063d547741f14610420578063e985e9c51461043c57610142565b806391d14854146102e157806395d89b411461031157806398e36d8b1461032f578063a217fddf14610360578063a22cb4651461037e57610142565b8063248a9ca31161010a578063248a9ca3146101fd5780632f2ff15d1461022d57806336568abe1461024957806342842e0e146102655780636352211e1461028157806370a08231146102b157610142565b806301ffc9a71461014757806306fdde0314610177578063081812fc14610195578063095ea7b3146101c557806323b872dd146101e1575b600080fd5b610161600480360381019061015c9190612726565b61046c565b60405161016e9190612c01565b60405180910390f35b61017f61047e565b60405161018c9190612c37565b60405180910390f35b6101af60048036038101906101aa9190612778565b610510565b6040516101bc9190612b9a565b60405180910390f35b6101df60048036038101906101da9190612685565b610595565b005b6101fb60048036038101906101f6919061252b565b6106ad565b005b610217600480360381019061021291906126c1565b61070d565b6040516102249190612c1c565b60405180910390f35b610247600480360381019061024291906126ea565b61072d565b005b610263600480360381019061025e91906126ea565b610756565b005b61027f600480360381019061027a919061252b565b6107d9565b005b61029b60048036038101906102969190612778565b6107f9565b6040516102a89190612b9a565b60405180910390f35b6102cb60048036038101906102c691906124c6565b6108ab565b6040516102d89190612e99565b60405180910390f35b6102fb60048036038101906102f691906126ea565b610963565b6040516103089190612c01565b60405180910390f35b6103196109ce565b6040516103269190612c37565b60405180910390f35b61034960048036038101906103449190612778565b610a60565b604051610357929190612eb4565b60405180910390f35b610368610ab4565b6040516103759190612c1c565b60405180910390f35b610398600480360381019061039391906125f5565b610abb565b005b6103b460048036038101906103af919061257a565b610c3c565b005b6103d060048036038101906103cb9190612778565b610c9e565b6040516103dd9190612c37565b60405180910390f35b61040060048036038101906103fb9190612631565b610cb0565b005b61040a610dc6565b6040516104179190612c1c565b60405180910390f35b61043a600480360381019061043591906126ea565b610dea565b005b610456600480360381019061045191906124ef565b610e13565b6040516104639190612c01565b60405180910390f35b600061047782610ea7565b9050919050565b60606000805461048d906131a6565b80601f01602080910402602001604051908101604052809291908181526020018280546104b9906131a6565b80156105065780601f106104db57610100808354040283529160200191610506565b820191906000526020600020905b8154815290600101906020018083116104e957829003601f168201915b5050505050905090565b600061051b82610f21565b61055a576040517f08c379a000000000000000000000000000000000000000000000000000000000815260040161055190612dd9565b60405180910390fd5b6004600083815260200190815260200160002060009054906101000a900473ffffffffffffffffffffffffffffffffffffffff169050919050565b60006105a0826107f9565b90508073ffffffffffffffffffffffffffffffffffffffff168373ffffffffffffffffffffffffffffffffffffffff161415610611576040517f08c379a000000000000000000000000000000000000000000000000000000000815260040161060890612e39565b60405180910390fd5b8073ffffffffffffffffffffffffffffffffffffffff16610630610f8d565b73ffffffffffffffffffffffffffffffffffffffff16148061065f575061065e81610659610f8d565b610e13565b5b61069e576040517f08c379a000000000000000000000000000000000000000000000000000000000815260040161069590612d19565b60405180910390fd5b6106a88383610f95565b505050565b6106be6106b8610f8d565b8261104e565b6106fd576040517f08c379a00000000000000000000000000000000000000000000000000000000081526004016106f490612e59565b60405180910390fd5b61070883838361112c565b505050565b600060076000838152602001908152602001600020600101549050919050565b6107368261070d565b61074781610742610f8d565b611388565b6107518383611425565b505050565b61075e610f8d565b73ffffffffffffffffffffffffffffffffffffffff168173ffffffffffffffffffffffffffffffffffffffff16146107cb576040517f08c379a00000000000000000000000000000000000000000000000000000000081526004016107c290612e79565b60405180910390fd5b6107d58282611506565b5050565b6107f483838360405180602001604052806000815250610c3c565b505050565b6000806002600084815260200190815260200160002060009054906101000a900473ffffffffffffffffffffffffffffffffffffffff169050600073ffffffffffffffffffffffffffffffffffffffff168173ffffffffffffffffffffffffffffffffffffffff1614156108a2576040517f08c379a000000000000000000000000000000000000000000000000000000000815260040161089990612d59565b60405180910390fd5b80915050919050565b60008073ffffffffffffffffffffffffffffffffffffffff168273ffffffffffffffffffffffffffffffffffffffff16141561091c576040517f08c379a000000000000000000000000000000000000000000000000000000000815260040161091390612d39565b60405180910390fd5b600360008373ffffffffffffffffffffffffffffffffffffffff1673ffffffffffffffffffffffffffffffffffffffff168152602001908152602001600020549050919050565b60006007600084815260200190815260200160002060000160008373ffffffffffffffffffffffffffffffffffffffff1673ffffffffffffffffffffffffffffffffffffffff16815260200190815260200160002060009054906101000a900460ff16905092915050565b6060600180546109dd906131a6565b80601f0160208091040260200160405190810160405280929190818152602001828054610a09906131a6565b8015610a565780601f10610a2b57610100808354040283529160200191610a56565b820191906000526020600020905b815481529060010190602001808311610a3957829003601f168201915b5050505050905090565b60098181548110610a7057600080fd5b90600052602060002090600202016000915090508060000154908060010160009054906101000a900473ffffffffffffffffffffffffffffffffffffffff16905082565b6000801b81565b610ac3610f8d565b73ffffffffffffffffffffffffffffffffffffffff168273ffffffffffffffffffffffffffffffffffffffff161415610b31576040517f08c379a0000000000000000000000000000000000000000000000000000000008152600401610b2890612cd9565b60405180910390fd5b8060056000610b3e610f8d565b73ffffffffffffffffffffffffffffffffffffffff1673ffffffffffffffffffffffffffffffffffffffff16815260200190815260200160002060008473ffffffffffffffffffffffffffffffffffffffff1673ffffffffffffffffffffffffffffffffffffffff16815260200190815260200160002060006101000a81548160ff0219169083151502179055508173ffffffffffffffffffffffffffffffffffffffff16610beb610f8d565b73ffffffffffffffffffffffffffffffffffffffff167f17307eab39ab6107e8899845ad3d59bd9653f200f220920489ca2b5937696c3183604051610c309190612c01565b60405180910390a35050565b610c4d610c47610f8d565b8361104e565b610c8c576040517f08c379a0000000000000000000000000000000000000000000000000000000008152600401610c8390612e59565b60405180910390fd5b610c98848484846115e8565b50505050565b6060610ca982611644565b9050919050565b7f9f2df0fed2c77648de5860a4cc508cd0818c85b8b8a1ab4ceeef8d981c8956a6610ce281610cdd610f8d565b611388565b6000610cee6008611796565b9050610cfa60086117a4565b610d0484826117ba565b610d0e81846117d8565b60096040518060400160405280610d256008611796565b81526020018673ffffffffffffffffffffffffffffffffffffffff1681525090806001815401808255809150506001900390600052602060002090600202016000909190919091506000820151816000015560208201518160010160006101000a81548173ffffffffffffffffffffffffffffffffffffffff021916908373ffffffffffffffffffffffffffffffffffffffff160217905550505050505050565b7f9f2df0fed2c77648de5860a4cc508cd0818c85b8b8a1ab4ceeef8d981c8956a681565b610df38261070d565b610e0481610dff610f8d565b611388565b610e0e8383611506565b505050565b6000600560008473ffffffffffffffffffffffffffffffffffffffff1673ffffffffffffffffffffffffffffffffffffffff16815260200190815260200160002060008373ffffffffffffffffffffffffffffffffffffffff1673ffffffffffffffffffffffffffffffffffffffff16815260200190815260200160002060009054906101000a900460ff16905092915050565b60007f7965db0b000000000000000000000000000000000000000000000000000000007bffffffffffffffffffffffffffffffffffffffffffffffffffffffff1916827bffffffffffffffffffffffffffffffffffffffffffffffffffffffff19161480610f1a5750610f198261184c565b5b9050919050565b60008073ffffffffffffffffffffffffffffffffffffffff166002600084815260200190815260200160002060009054906101000a900473ffffffffffffffffffffffffffffffffffffffff1673ffffffffffffffffffffffffffffffffffffffff1614159050919050565b600033905090565b816004600083815260200190815260200160002060006101000a81548173ffffffffffffffffffffffffffffffffffffffff021916908373ffffffffffffffffffffffffffffffffffffffff160217905550808273ffffffffffffffffffffffffffffffffffffffff16611008836107f9565b73ffffffffffffffffffffffffffffffffffffffff167f8c5be1e5ebec7d5bd14f71427d1e84f3dd0314c0f7b2291e5b200ac8c7c3b92560405160405180910390a45050565b600061105982610f21565b611098576040517f08c379a000000000000000000000000000000000000000000000000000000000815260040161108f90612cf9565b60405180910390fd5b60006110a3836107f9565b90508073ffffffffffffffffffffffffffffffffffffffff168473ffffffffffffffffffffffffffffffffffffffff16148061111257508373ffffffffffffffffffffffffffffffffffffffff166110fa84610510565b73ffffffffffffffffffffffffffffffffffffffff16145b8061112357506111228185610e13565b5b91505092915050565b8273ffffffffffffffffffffffffffffffffffffffff1661114c826107f9565b73ffffffffffffffffffffffffffffffffffffffff16146111a2576040517f08c379a000000000000000000000000000000000000000000000000000000000815260040161119990612df9565b60405180910390fd5b600073ffffffffffffffffffffffffffffffffffffffff168273ffffffffffffffffffffffffffffffffffffffff161415611212576040517f08c379a000000000000000000000000000000000000000000000000000000000815260040161120990612cb9565b60405180910390fd5b61121d83838361192e565b611228600082610f95565b6001600360008573ffffffffffffffffffffffffffffffffffffffff1673ffffffffffffffffffffffffffffffffffffffff16815260200190815260200160002060008282546112789190613088565b925050819055506001600360008473ffffffffffffffffffffffffffffffffffffffff1673ffffffffffffffffffffffffffffffffffffffff16815260200190815260200160002060008282546112cf9190612fa7565b92505081905550816002600083815260200190815260200160002060006101000a81548173ffffffffffffffffffffffffffffffffffffffff021916908373ffffffffffffffffffffffffffffffffffffffff160217905550808273ffffffffffffffffffffffffffffffffffffffff168473ffffffffffffffffffffffffffffffffffffffff167fddf252ad1be2c89b69c2b068fc378daa952ba7f163c4a11628f55a4df523b3ef60405160405180910390a4505050565b6113928282610963565b611421576113b78173ffffffffffffffffffffffffffffffffffffffff166014611933565b6113c58360001c6020611933565b6040516020016113d6929190612b60565b6040516020818303038152906040526040517f08c379a00000000000000000000000000000000000000000000000000000000081526004016114189190612c37565b60405180910390fd5b5050565b61142f8282610963565b6115025760016007600084815260200190815260200160002060000160008373ffffffffffffffffffffffffffffffffffffffff1673ffffffffffffffffffffffffffffffffffffffff16815260200190815260200160002060006101000a81548160ff0219169083151502179055506114a7610f8d565b73ffffffffffffffffffffffffffffffffffffffff168173ffffffffffffffffffffffffffffffffffffffff16837f2f8788117e7eff1d82e926ec794901d17c78024a50270940304540a733656f0d60405160405180910390a45b5050565b6115108282610963565b156115e45760006007600084815260200190815260200160002060000160008373ffffffffffffffffffffffffffffffffffffffff1673ffffffffffffffffffffffffffffffffffffffff16815260200190815260200160002060006101000a81548160ff021916908315150217905550611589610f8d565b73ffffffffffffffffffffffffffffffffffffffff168173ffffffffffffffffffffffffffffffffffffffff16837ff6391f5c32d9c69d2a47ea670b442974b53935d1edc7fd64eb21e047a839171b60405160405180910390a45b5050565b6115f384848461112c565b6115ff84848484611c2d565b61163e576040517f08c379a000000000000000000000000000000000000000000000000000000000815260040161163590612c79565b60405180910390fd5b50505050565b606061164f82610f21565b61168e576040517f08c379a000000000000000000000000000000000000000000000000000000000815260040161168590612db9565b60405180910390fd5b60006006600084815260200190815260200160002080546116ae906131a6565b80601f01602080910402602001604051908101604052809291908181526020018280546116da906131a6565b80156117275780601f106116fc57610100808354040283529160200191611727565b820191906000526020600020905b81548152906001019060200180831161170a57829003601f168201915b505050505090506000611738611dc4565b905060008151141561174e578192505050611791565b60008251111561178357808260405160200161176b929190612b3c565b60405160208183030381529060405292505050611791565b61178c84611ddb565b925050505b919050565b600081600001549050919050565b6001816000016000828254019250508190555050565b6117d4828260405180602001604052806000815250611e82565b5050565b6117e182610f21565b611820576040517f08c379a000000000000000000000000000000000000000000000000000000000815260040161181790612d79565b60405180910390fd5b806006600084815260200190815260200160002090805190602001906118479291906122d5565b505050565b60007f80ac58cd000000000000000000000000000000000000000000000000000000007bffffffffffffffffffffffffffffffffffffffffffffffffffffffff1916827bffffffffffffffffffffffffffffffffffffffffffffffffffffffff1916148061191757507f5b5e139f000000000000000000000000000000000000000000000000000000007bffffffffffffffffffffffffffffffffffffffffffffffffffffffff1916827bffffffffffffffffffffffffffffffffffffffffffffffffffffffff1916145b80611927575061192682611edd565b5b9050919050565b505050565b606060006002836002611946919061302e565b6119509190612fa7565b67ffffffffffffffff81111561198f577f4e487b7100000000000000000000000000000000000000000000000000000000600052604160045260246000fd5b6040519080825280601f01601f1916602001820160405280156119c15781602001600182028036833780820191505090505b5090507f300000000000000000000000000000000000000000000000000000000000000081600081518110611a1f577f4e487b7100000000000000000000000000000000000000000000000000000000600052603260045260246000fd5b60200101907effffffffffffffffffffffffffffffffffffffffffffffffffffffffffffff1916908160001a9053507f780000000000000000000000000000000000000000000000000000000000000081600181518110611aa9577f4e487b7100000000000000000000000000000000000000000000000000000000600052603260045260246000fd5b60200101907effffffffffffffffffffffffffffffffffffffffffffffffffffffffffffff1916908160001a90535060006001846002611ae9919061302e565b611af39190612fa7565b90505b6001811115611bdf577f3031323334353637383961626364656600000000000000000000000000000000600f861660108110611b5b577f4e487b7100000000000000000000000000000000000000000000000000000000600052603260045260246000fd5b1a60f81b828281518110611b98577f4e487b7100000000000000000000000000000000000000000000000000000000600052603260045260246000fd5b60200101907effffffffffffffffffffffffffffffffffffffffffffffffffffffffffffff1916908160001a905350600485901c945080611bd89061317c565b9050611af6565b5060008414611c23576040517f08c379a0000000000000000000000000000000000000000000000000000000008152600401611c1a90612c59565b60405180910390fd5b8091505092915050565b6000611c4e8473ffffffffffffffffffffffffffffffffffffffff16611f47565b15611db7578373ffffffffffffffffffffffffffffffffffffffff1663150b7a02611c77610f8d565b8786866040518563ffffffff1660e01b8152600401611c999493929190612bb5565b602060405180830381600087803b158015611cb357600080fd5b505af1925050508015611ce457506040513d601f19601f82011682018060405250810190611ce1919061274f565b60015b611d67573d8060008114611d14576040519150601f19603f3d011682016040523d82523d6000602084013e611d19565b606091505b50600081511415611d5f576040517f08c379a0000000000000000000000000000000000000000000000000000000008152600401611d5690612c79565b60405180910390fd5b805181602001fd5b63150b7a0260e01b7bffffffffffffffffffffffffffffffffffffffffffffffffffffffff1916817bffffffffffffffffffffffffffffffffffffffffffffffffffffffff191614915050611dbc565b600190505b949350505050565b606060405180602001604052806000815250905090565b6060611de682610f21565b611e25576040517f08c379a0000000000000000000000000000000000000000000000000000000008152600401611e1c90612e19565b60405180910390fd5b6000611e2f611dc4565b90506000815111611e4f5760405180602001604052806000815250611e7a565b80611e5984611f5a565b604051602001611e6a929190612b3c565b6040516020818303038152906040525b915050919050565b611e8c8383612107565b611e996000848484611c2d565b611ed8576040517f08c379a0000000000000000000000000000000000000000000000000000000008152600401611ecf90612c79565b60405180910390fd5b505050565b60007f01ffc9a7000000000000000000000000000000000000000000000000000000007bffffffffffffffffffffffffffffffffffffffffffffffffffffffff1916827bffffffffffffffffffffffffffffffffffffffffffffffffffffffff1916149050919050565b600080823b905060008111915050919050565b60606000821415611fa2576040518060400160405280600181526020017f30000000000000000000000000000000000000000000000000000000000000008152509050612102565b600082905060005b60008214611fd4578080611fbd90613209565b915050600a82611fcd9190612ffd565b9150611faa565b60008167ffffffffffffffff811115612016577f4e487b7100000000000000000000000000000000000000000000000000000000600052604160045260246000fd5b6040519080825280601f01601f1916602001820160405280156120485781602001600182028036833780820191505090505b5090505b600085146120fb576001826120619190613088565b9150600a856120709190613252565b603061207c9190612fa7565b60f81b8183815181106120b8577f4e487b7100000000000000000000000000000000000000000000000000000000600052603260045260246000fd5b60200101907effffffffffffffffffffffffffffffffffffffffffffffffffffffffffffff1916908160001a905350600a856120f49190612ffd565b945061204c565b8093505050505b919050565b600073ffffffffffffffffffffffffffffffffffffffff168273ffffffffffffffffffffffffffffffffffffffff161415612177576040517f08c379a000000000000000000000000000000000000000000000000000000000815260040161216e90612d99565b60405180910390fd5b61218081610f21565b156121c0576040517f08c379a00000000000000000000000000000000000000000000000000000000081526004016121b790612c99565b60405180910390fd5b6121cc6000838361192e565b6001600360008473ffffffffffffffffffffffffffffffffffffffff1673ffffffffffffffffffffffffffffffffffffffff168152602001908152602001600020600082825461221c9190612fa7565b92505081905550816002600083815260200190815260200160002060006101000a81548173ffffffffffffffffffffffffffffffffffffffff021916908373ffffffffffffffffffffffffffffffffffffffff160217905550808273ffffffffffffffffffffffffffffffffffffffff16600073ffffffffffffffffffffffffffffffffffffffff167fddf252ad1be2c89b69c2b068fc378daa952ba7f163c4a11628f55a4df523b3ef60405160405180910390a45050565b8280546122e1906131a6565b90600052602060002090601f016020900481019282612303576000855561234a565b82601f1061231c57805160ff191683800117855561234a565b8280016001018555821561234a579182015b8281111561234957825182559160200191906001019061232e565b5b509050612357919061235b565b5090565b5b8082111561237457600081600090555060010161235c565b5090565b600061238b61238684612f02565b612edd565b9050828152602081018484840111156123a357600080fd5b6123ae84828561313a565b509392505050565b60006123c96123c484612f33565b612edd565b9050828152602081018484840111156123e157600080fd5b6123ec84828561313a565b509392505050565b60008135905061240381613898565b92915050565b600081359050612418816138af565b92915050565b60008135905061242d816138c6565b92915050565b600081359050612442816138dd565b92915050565b600081519050612457816138dd565b92915050565b600082601f83011261246e57600080fd5b813561247e848260208601612378565b91505092915050565b600082601f83011261249857600080fd5b81356124a88482602086016123b6565b91505092915050565b6000813590506124c0816138f4565b92915050565b6000602082840312156124d857600080fd5b60006124e6848285016123f4565b91505092915050565b6000806040838503121561250257600080fd5b6000612510858286016123f4565b9250506020612521858286016123f4565b9150509250929050565b60008060006060848603121561254057600080fd5b600061254e868287016123f4565b935050602061255f868287016123f4565b9250506040612570868287016124b1565b9150509250925092565b6000806000806080858703121561259057600080fd5b600061259e878288016123f4565b94505060206125af878288016123f4565b93505060406125c0878288016124b1565b925050606085013567ffffffffffffffff8111156125dd57600080fd5b6125e98782880161245d565b91505092959194509250565b6000806040838503121561260857600080fd5b6000612616858286016123f4565b925050602061262785828601612409565b9150509250929050565b6000806040838503121561264457600080fd5b6000612652858286016123f4565b925050602083013567ffffffffffffffff81111561266f57600080fd5b61267b85828601612487565b9150509250929050565b6000806040838503121561269857600080fd5b60006126a6858286016123f4565b92505060206126b7858286016124b1565b9150509250929050565b6000602082840312156126d357600080fd5b60006126e18482850161241e565b91505092915050565b600080604083850312156126fd57600080fd5b600061270b8582860161241e565b925050602061271c858286016123f4565b9150509250929050565b60006020828403121561273857600080fd5b600061274684828501612433565b91505092915050565b60006020828403121561276157600080fd5b600061276f84828501612448565b91505092915050565b60006020828403121561278a57600080fd5b6000612798848285016124b1565b91505092915050565b6127aa816130bc565b82525050565b6127b9816130ce565b82525050565b6127c8816130da565b82525050565b60006127d982612f64565b6127e38185612f7a565b93506127f3818560208601613149565b6127fc8161333f565b840191505092915050565b600061281282612f6f565b61281c8185612f8b565b935061282c818560208601613149565b6128358161333f565b840191505092915050565b600061284b82612f6f565b6128558185612f9c565b9350612865818560208601613149565b80840191505092915050565b600061287e602083612f8b565b915061288982613350565b602082019050919050565b60006128a1603283612f8b565b91506128ac82613379565b604082019050919050565b60006128c4601c83612f8b565b91506128cf826133c8565b602082019050919050565b60006128e7602483612f8b565b91506128f2826133f1565b604082019050919050565b600061290a601983612f8b565b915061291582613440565b602082019050919050565b600061292d602c83612f8b565b915061293882613469565b604082019050919050565b6000612950603883612f8b565b915061295b826134b8565b604082019050919050565b6000612973602a83612f8b565b915061297e82613507565b604082019050919050565b6000612996602983612f8b565b91506129a182613556565b604082019050919050565b60006129b9602e83612f8b565b91506129c4826135a5565b604082019050919050565b60006129dc602083612f8b565b91506129e7826135f4565b602082019050919050565b60006129ff603183612f8b565b9150612a0a8261361d565b604082019050919050565b6000612a22602c83612f8b565b9150612a2d8261366c565b604082019050919050565b6000612a45602983612f8b565b9150612a50826136bb565b604082019050919050565b6000612a68602f83612f8b565b9150612a738261370a565b604082019050919050565b6000612a8b602183612f8b565b9150612a9682613759565b604082019050919050565b6000612aae603183612f8b565b9150612ab9826137a8565b604082019050919050565b6000612ad1601783612f9c565b9150612adc826137f7565b601782019050919050565b6000612af4601183612f9c565b9150612aff82613820565b601182019050919050565b6000612b17602f83612f8b565b9150612b2282613849565b604082019050919050565b612b3681613130565b82525050565b6000612b488285612840565b9150612b548284612840565b91508190509392505050565b6000612b6b82612ac4565b9150612b778285612840565b9150612b8282612ae7565b9150612b8e8284612840565b91508190509392505050565b6000602082019050612baf60008301846127a1565b92915050565b6000608082019050612bca60008301876127a1565b612bd760208301866127a1565b612be46040830185612b2d565b8181036060830152612bf681846127ce565b905095945050505050565b6000602082019050612c1660008301846127b0565b92915050565b6000602082019050612c3160008301846127bf565b92915050565b60006020820190508181036000830152612c518184612807565b905092915050565b60006020820190508181036000830152612c7281612871565b9050919050565b60006020820190508181036000830152612c9281612894565b9050919050565b60006020820190508181036000830152612cb2816128b7565b9050919050565b60006020820190508181036000830152612cd2816128da565b9050919050565b60006020820190508181036000830152612cf2816128fd565b9050919050565b60006020820190508181036000830152612d1281612920565b9050919050565b60006020820190508181036000830152612d3281612943565b9050919050565b60006020820190508181036000830152612d5281612966565b9050919050565b60006020820190508181036000830152612d7281612989565b9050919050565b60006020820190508181036000830152612d92816129ac565b9050919050565b60006020820190508181036000830152612db2816129cf565b9050919050565b60006020820190508181036000830152612dd2816129f2565b9050919050565b60006020820190508181036000830152612df281612a15565b9050919050565b60006020820190508181036000830152612e1281612a38565b9050919050565b60006020820190508181036000830152612e3281612a5b565b9050919050565b60006020820190508181036000830152612e5281612a7e565b9050919050565b60006020820190508181036000830152612e7281612aa1565b9050919050565b60006020820190508181036000830152612e9281612b0a565b9050919050565b6000602082019050612eae6000830184612b2d565b92915050565b6000604082019050612ec96000830185612b2d565b612ed660208301846127a1565b9392505050565b6000612ee7612ef8565b9050612ef382826131d8565b919050565b6000604051905090565b600067ffffffffffffffff821115612f1d57612f1c613310565b5b612f268261333f565b9050602081019050919050565b600067ffffffffffffffff821115612f4e57612f4d613310565b5b612f578261333f565b9050602081019050919050565b600081519050919050565b600081519050919050565b600082825260208201905092915050565b600082825260208201905092915050565b600081905092915050565b6000612fb282613130565b9150612fbd83613130565b9250827fffffffffffffffffffffffffffffffffffffffffffffffffffffffffffffffff03821115612ff257612ff1613283565b5b828201905092915050565b600061300882613130565b915061301383613130565b925082613023576130226132b2565b5b828204905092915050565b600061303982613130565b915061304483613130565b9250817fffffffffffffffffffffffffffffffffffffffffffffffffffffffffffffffff048311821515161561307d5761307c613283565b5b828202905092915050565b600061309382613130565b915061309e83613130565b9250828210156130b1576130b0613283565b5b828203905092915050565b60006130c782613110565b9050919050565b60008115159050919050565b6000819050919050565b60007fffffffff0000000000000000000000000000000000000000000000000000000082169050919050565b600073ffffffffffffffffffffffffffffffffffffffff82169050919050565b6000819050919050565b82818337600083830152505050565b60005b8381101561316757808201518184015260208101905061314c565b83811115613176576000848401525b50505050565b600061318782613130565b9150600082141561319b5761319a613283565b5b600182039050919050565b600060028204905060018216806131be57607f821691505b602082108114156131d2576131d16132e1565b5b50919050565b6131e18261333f565b810181811067ffffffffffffffff82111715613200576131ff613310565b5b80604052505050565b600061321482613130565b91507fffffffffffffffffffffffffffffffffffffffffffffffffffffffffffffffff82141561324757613246613283565b5b600182019050919050565b600061325d82613130565b915061326883613130565b925082613278576132776132b2565b5b828206905092915050565b7f4e487b7100000000000000000000000000000000000000000000000000000000600052601160045260246000fd5b7f4e487b7100000000000000000000000000000000000000000000000000000000600052601260045260246000fd5b7f4e487b7100000000000000000000000000000000000000000000000000000000600052602260045260246000fd5b7f4e487b7100000000000000000000000000000000000000000000000000000000600052604160045260246000fd5b6000601f19601f8301169050919050565b7f537472696e67733a20686578206c656e67746820696e73756666696369656e74600082015250565b7f4552433732313a207472616e7366657220746f206e6f6e20455243373231526560008201527f63656976657220696d706c656d656e7465720000000000000000000000000000602082015250565b7f4552433732313a20746f6b656e20616c7265616479206d696e74656400000000600082015250565b7f4552433732313a207472616e7366657220746f20746865207a65726f2061646460008201527f7265737300000000000000000000000000000000000000000000000000000000602082015250565b7f4552433732313a20617070726f766520746f2063616c6c657200000000000000600082015250565b7f4552433732313a206f70657261746f7220717565727920666f72206e6f6e657860008201527f697374656e7420746f6b656e0000000000000000000000000000000000000000602082015250565b7f4552433732313a20617070726f76652063616c6c6572206973206e6f74206f7760008201527f6e6572206e6f7220617070726f76656420666f7220616c6c0000000000000000602082015250565b7f4552433732313a2062616c616e636520717565727920666f7220746865207a6560008201527f726f206164647265737300000000000000000000000000000000000000000000602082015250565b7f4552433732313a206f776e657220717565727920666f72206e6f6e657869737460008201527f656e7420746f6b656e0000000000000000000000000000000000000000000000602082015250565b7f45524337323155524953746f726167653a2055524920736574206f66206e6f6e60008201527f6578697374656e7420746f6b656e000000000000000000000000000000000000602082015250565b7f4552433732313a206d696e7420746f20746865207a65726f2061646472657373600082015250565b7f45524337323155524953746f726167653a2055524920717565727920666f722060008201527f6e6f6e6578697374656e7420746f6b656e000000000000000000000000000000602082015250565b7f4552433732313a20617070726f76656420717565727920666f72206e6f6e657860008201527f697374656e7420746f6b656e0000000000000000000000000000000000000000602082015250565b7f4552433732313a207472616e73666572206f6620746f6b656e2074686174206960008201527f73206e6f74206f776e0000000000000000000000000000000000000000000000602082015250565b7f4552433732314d657461646174613a2055524920717565727920666f72206e6f60008201527f6e6578697374656e7420746f6b656e0000000000000000000000000000000000602082015250565b7f4552433732313a20617070726f76616c20746f2063757272656e74206f776e6560008201527f7200000000000000000000000000000000000000000000000000000000000000602082015250565b7f4552433732313a207472616e736665722063616c6c6572206973206e6f74206f60008201527f776e6572206e6f7220617070726f766564000000000000000000000000000000602082015250565b7f416363657373436f6e74726f6c3a206163636f756e7420000000000000000000600082015250565b7f206973206d697373696e6720726f6c6520000000000000000000000000000000600082015250565b7f416363657373436f6e74726f6c3a2063616e206f6e6c792072656e6f756e636560008201527f20726f6c657320666f722073656c660000000000000000000000000000000000602082015250565b6138a1816130bc565b81146138ac57600080fd5b50565b6138b8816130ce565b81146138c357600080fd5b50565b6138cf816130da565b81146138da57600080fd5b50565b6138e6816130e4565b81146138f157600080fd5b50565b6138fd81613130565b811461390857600080fd5b5056fea26469706673582212200e2bf6c721ce62cf93d183e4277f25a9945611d64e4b4b12088fc1fc9ea2157964736f6c63430008020033",
  "immutableReferences": {},
  "source": "// SPDX-License-Identifier: MIT\r\npragma solidity ^0.8.2;\r\n\r\nimport \"@openzeppelin/contracts/token/ERC721/ERC721.sol\";\r\nimport \"@openzeppelin/contracts/token/ERC721/extensions/ERC721URIStorage.sol\";\r\nimport \"@openzeppelin/contracts/access/AccessControl.sol\";\r\nimport \"@openzeppelin/contracts/utils/Counters.sol\";\r\n\r\ncontract CryptoStepsNFT is ERC721, ERC721URIStorage, AccessControl {\r\n    using Counters for Counters.Counter;\r\n\r\n    bytes32 public constant MINTER_ROLE = keccak256(\"MINTER_ROLE\");\r\n    Counters.Counter private _tokenIdCounter;\r\n\r\n    constructor() ERC721(\"Crypto-Steps NFT\", \"STEPS\") {\r\n        _setupRole(DEFAULT_ADMIN_ROLE, msg.sender);\r\n    }\r\n\r\n    struct Badge {\r\n        uint tokenID;\r\n        address owner;\r\n    }\r\n\r\n    Badge[] public badges;\r\n\r\n    function safeMint(address to, string memory uri) public onlyRole(MINTER_ROLE) {\r\n        uint256 tokenId = _tokenIdCounter.current();\r\n        _tokenIdCounter.increment();\r\n        _safeMint(to, tokenId);\r\n        _setTokenURI(tokenId, uri);\r\n        badges.push(Badge(_tokenIdCounter.current(), to));\r\n    }\r\n\r\n    function _burn(uint256 tokenId) internal override(ERC721, ERC721URIStorage) {\r\n        super._burn(tokenId);\r\n    }\r\n\r\n    function tokenURI(uint256 tokenId)\r\n        public\r\n        view\r\n        override(ERC721, ERC721URIStorage)\r\n        returns (string memory)\r\n    {\r\n        return super.tokenURI(tokenId);\r\n    }\r\n\r\n    function supportsInterface(bytes4 interfaceId)\r\n        public\r\n        view\r\n        override(ERC721, AccessControl)\r\n        returns (bool)\r\n    {\r\n        return super.supportsInterface(interfaceId);\r\n    }\r\n}",
  "sourcePath": "C:/Users/Abel Simon Zachariah/Projects/Crypto-Steps/Smart-Contracts/contracts/CryptoStepsNFT.sol",
  "compiler": {
    "name": "solc",
    "version": "0.8.2+commit.661d1103.Emscripten.clang"
  },
  "schemaVersion": "3.3.4",
  "updatedAt": "2021-11-13T08:09:28.018Z",
  "networkType": "ethereum",
  "devdoc": {
    "kind": "dev",
    "methods": {
      "approve(address,uint256)": {
        "details": "See {IERC721-approve}."
      },
      "balanceOf(address)": {
        "details": "See {IERC721-balanceOf}."
      },
      "getApproved(uint256)": {
        "details": "See {IERC721-getApproved}."
      },
      "getRoleAdmin(bytes32)": {
        "details": "Returns the admin role that controls `role`. See {grantRole} and {revokeRole}. To change a role's admin, use {_setRoleAdmin}."
      },
      "grantRole(bytes32,address)": {
        "details": "Grants `role` to `account`. If `account` had not been already granted `role`, emits a {RoleGranted} event. Requirements: - the caller must have ``role``'s admin role."
      },
      "hasRole(bytes32,address)": {
        "details": "Returns `true` if `account` has been granted `role`."
      },
      "isApprovedForAll(address,address)": {
        "details": "See {IERC721-isApprovedForAll}."
      },
      "name()": {
        "details": "See {IERC721Metadata-name}."
      },
      "ownerOf(uint256)": {
        "details": "See {IERC721-ownerOf}."
      },
      "renounceRole(bytes32,address)": {
        "details": "Revokes `role` from the calling account. Roles are often managed via {grantRole} and {revokeRole}: this function's purpose is to provide a mechanism for accounts to lose their privileges if they are compromised (such as when a trusted device is misplaced). If the calling account had been granted `role`, emits a {RoleRevoked} event. Requirements: - the caller must be `account`."
      },
      "revokeRole(bytes32,address)": {
        "details": "Revokes `role` from `account`. If `account` had been granted `role`, emits a {RoleRevoked} event. Requirements: - the caller must have ``role``'s admin role."
      },
      "safeTransferFrom(address,address,uint256)": {
        "details": "See {IERC721-safeTransferFrom}."
      },
      "safeTransferFrom(address,address,uint256,bytes)": {
        "details": "See {IERC721-safeTransferFrom}."
      },
      "setApprovalForAll(address,bool)": {
        "details": "See {IERC721-setApprovalForAll}."
      },
      "symbol()": {
        "details": "See {IERC721Metadata-symbol}."
      },
      "transferFrom(address,address,uint256)": {
        "details": "See {IERC721-transferFrom}."
      }
    },
    "version": 1
  },
  "userdoc": {
    "kind": "user",
    "methods": {},
    "version": 1
  }
}